:020000000C2FC3
:10000800FF00030E8301D8000A08D7008A010B1CE1
:100018002228061E1228B40A0319B50A861E1728B4
:10002800B80A0319B90A061F1C28BA0A0319BB0A19
:10003800861B2128B20A0319B30A0B108B1C282827
:10004800B00A0319B10A8B1057088A00580E8300AA
:06005800FF0E7F0E0900FF
:04005E000000080096
:10006200083083120313FC002330FD00FD0B3728F8
:06007200FC0B372808001A
:10007800103083120313FD00FD0B40280000080018
:1000880083160313E31B4B28831288124D2883120F
:1000980088168316631B5328831208125528831267
:1000A80008168316E31A5B28831288115D288312C9
:1000B80088158316631A632883120811652883122A
:1000C80008154A18692808146A28081088142F2067
:1000D80088108316E31973288312881275288312EF
:1000E8008816831663197B28831208127D288312C9
:1000F80008168316E318832883128811852883122B
:100108008815831663188B28831208118D2883128B
:1001180008154A18912808149228081088142F20C6
:0E01280088104A1C992831209A283C20080093
:100136008530831603138100F101F2018030F0004F
:10014600803072067002031DAA287108043C031C45
:10015600B82803136430831281000B110B19B428DD
:0C016600B128F10A0319F20AA1280800D0
:0E017200831203133D088A003C088200080037
:10018000831203134A1083166208E30044204A14C2
:02019000080065
:1001920083120313C001C101103087000B1CFD281C
:1001A20000303506031DD728003034060319E02835
:1001B2003130C0000030C100B401B501FD2800306B
:1001C2003906031DE628003038060319EF283230BD
:1001D200C0000030C100B801B901FD2800303B0663
:1001E200031DF52800303A060319FD283330C000FC
:1001F2000030C100BA01BB019B20203083120313DF
:1002020087000B1C302900303506031D0A290030F7
:100212003406031913293430C0000030C100B40180
:10022200B501302900303906031D1929003038067E
:10023200031922293530C0000030C100B801B901CC
:10024200302900303B06031D282900303A060319E5
:1002520030293630C0000030C100BA01BB019B20FA
:1002620040308312031387000B1C632900303506CC
:10027200031D3D2900303406031946293730C000DA
:100282000030C100B401B501632900303906031DF5
:100292004C2900303806031955293830C000003087
:1002A200C100B801B901632900303B06031D5B2977
:1002B20000303A06031963293930C0000030C1000A
:1002C200BA01BB019B2080308312031387000B1CF1
:1002D200962900303506031D7029003034060319B3
:1002E20079292A30C0000030C100B401B501962935
:1002F20000303906031D7F2900303806031988298A
:100302003030C0000030C100B801B9019629003078
:100312003B06031D8E2900303A0603199629233025
:10032200C0000030C100BA01BB019B20831203133D
:060332004008F000080085
:10033800AE29803083160313DF00C129C030DF00E7
:10034800C1299430DF00C129D430DF00C1298030B1
:10035800DF00C129831603135F08013A03199D2999
:100368005F08023A0319A2295F08033A0319A5296D
:100378005F08043A0319A829AB296003F0005F0855
:10038800F0077008DF0083124A1470088316E30030
:1003980044204A1083166108E30044204A140800E8
:1003A800B9208A110A128000840ABC0A0319BD0AFE
:0803B800F003031DD429080025
:1003C000831203136F0803178D0083168C130C140C
:0803D00083120C08F000080084
:1003D800FE29803083160313DF00112AC030DF00A6
:1003E800112A9430DF00112AD430DF00112A80301E
:1003F800DF00112A831603135F08013A0319ED2958
:100408005F08023A0319F2295F08033A0319F5292C
:100418005F08043A0319F829FB296003F0005F0814
:10042800F0077008DF007008E30044204A10EF016D
:100438006F08831661078400000803192D2A8312A8
:100448006F088316610784000008E200C020EF0AE5
:080458001C2A83124A1408005B
:1004600083120313FB01FA01F9018030F800F10C4B
:10047000F00C031C442A7408F90775080318750F5B
:10048000FA070318FB0A0310F01F4C2A7408FA0736
:1004900075080318750FFB07FB0CFA0CF90CF80C28
:1004A000031C372A7B08F3007A08F2007908F10070
:0604B0007808F0000800CE
:1004B60085308316031381006430831281000B118B
:0804C6000B19662A632A0800E5
:1004CE00831603178C1C6D2A0000672A03135B0822
:1004DE00831203178D00831603135C088312031710
:1004EE008C0083168C130C150B08F0008B135530F3
:1004FE008D00AA308D008C14F01B872A8B13882A4E
:06050E008B170C11080020
:100514007A3083120313BC000730BD00103084000E
:100524002B30F000D421C001C101BE01BF01AE01D6
:10053400AF01A401A501A201A301A001A101A6018B
:10054400A70101308316E300442001308316DF0045
:100554000130E0001230E100EC21BE01BF01503057
:10056400EF00E02170080313AC00AD015B225130B1
:1005740083120313EF00E02170080313AA00AB01F8
:100584005B22523083120313EF00E021700803133F
:10059400A800A9015B22533083120313EF00E0216A
:1005A40070080313B600B7012C08F0002D08F10001
:1005B400E830F4000330F500302270088316DD00C3
:1005C4007108DE0083122A08F0002B08F100643061
:1005D400F4000030F5003022700883165D078312A2
:1005E400D10083165E080318013E71078312D200FE
:1005F4002808F0002908F1000A30F4000030F50062
:1006040030227008D10771080318013ED20736085A
:10061400D10737080318013ED2070317900191014F
:100624008030F000803011067002031D1B2B10086F
:10063400323C031C382D0313C001C101C9207008CA
:10064400C000C10100304106031D2A2B00304006C2
:100654000319962C01308316DF000130E0001230BC
:10066400E100EC2100303F06031D3A2B00303E062A
:10067400031D8E2B30304002A4000030031C013EC9
:100684004102A50002308316DF0083123E08043EB7
:100694008316E000831240088316E1009C21831630
:1006A400DB01DC0180305C06F00080307002031D49
:1006B4005D2B32305B020318662B5B228316031317
:1006C400DB0A0319DC0A542B8312C001C101023076
:1006D4008316DF0083123E08043E8316E0002A30AE
:1006E400E1009C218316DB01DC0180305C06F00014
:1006F40080307002031D802B32305B020318892B7B
:100704005B2283160313DB0A0319DC0A772B83129B
:10071400BE0A0319BF0A312D00303F06031D942B76
:1007240001303E06031DE62B30304002A2000030AB
:10073400031C013E4102A30002308316DF00831232
:100744003E08043E8316E000831240088316E1004D
:100754009C218316DB01DC0180305C06F0008030D4
:100764007002031DB72B32305B020318C02B5B22CF
:1007740083160313DB0A0319DC0AAE2B0230DF00F5
:1007840083123E08043E8316E0002A30E1009C21D7
:100794008316DB01DC0180305C06F00080307002DF
:1007A400031DD62B32305B020318DF2B5B2283162A
:1007B4000313DB0A0319DC0ACD2B8312BE0A0319C7
:1007C400BF0AC001C101312D00303F06031DEC2BCF
:1007D40002303E06031D3E2C30304002A0000030A3
:1007E400031C013E4102A10002308316DF00831284
:1007F4003E08043E8316E000831240088316E1009D
:100804009C218316DB01DC0180305C06F000803023
:100814007002031D0F2C32305B020318182C5B226C
:1008240083160313DB0A0319DC0A062C0230DF00EB
:1008340083123E08043E8316E0002A30E1009C2126
:100844008316DB01DC0180305C06F000803070022E
:10085400031D2E2C32305B020318372C5B228316C7
:100864000313DB0A0319DC0A252C8312BE0A0319BD
:10087400BF0AC001C101312D00303F06031D442CC5
:1008840003303E06031D962C30304002A600003093
:10089400031C013E4102A70002308316DF008312CD
:1008A4003E08043E8316E000831240088316E100EC
:1008B4009C218316DB01DC0180305C06F000803073
:1008C4007002031D672C32305B020318702C5B220C
:1008D40083160313DB0A0319DC0A5E2C0230DF00E3
:1008E40083123E08043E8316E0002A30E1009C2176
:1008F4008316DB01DC0180305C06F000803070027E
:10090400031D862C32305B0203188F2C5B22831666
:100914000313DB0A0319DC0A7D2C8312C001C10115
:10092400BE0A0319BF0A9F2C00304106031D9C2CEC
:1009340000304006031D9F2C312D2408F0002508AB
:10094400F100E830F4000330F5003022700883161B
:10095400DD007108DE0083122208F0002308F10094
:100964006430F4000030F500302270088316DD078F
:1009740071080318013EDE0783122008F0002108E5
:10098400F1000A30F4000030F500302283165D08CF
:10099400F0075E080318013EF1078312260870076A
:1009A400F20071080318013E2707F3007208AE0035
:1009B4007308AF0073085206031DE22C5108720637
:1009C40003190B2D0230870001308316DF0001303C
:1009D400E0002230E100EC218316DB01DC018030F1
:1009E4005C06F00080307002031DFA2C32305B028A
:1009F4000318032D5B2283160313DB0A0319DC0A95
:100A0400F12C8312BE01BF0101308316E3004420A0
:100A1400312D2F085206031D112D51082E06031DDA
:100A2400312D0430870001308316DF000130E000EF
:100A34002E30E100EC210830FB009D30FC00053035
:100A4400FD00FD0B232DFC0B232DFB0B232D0000A0
:100A540000008701B201B301B001B10108005B22BB
:100A640083120317900A0319910A122B01300313FE
:100A740087000830FB009D30FC000530FD00FD0BB5
:100A8400412DFC0B412DFB0B412D00000000870183
:0A0A9400B201B301B001B101080086
:100A9E0083120313C001C101D501D601D301D401C4
:100AAE00CF01D001C601C701CB01CC01C001C101EC
:100ABE00C9207008C000C10100304106031D692D18
:100ACE0000304006031D6C2D5D2D00304106031DC8
:100ADE00722D0030400603196A2E00304C06031D9D
:100AEE007A2D00304B06031DAF2D30304002D5005D
:100AFE000030031C013E4102D60002308316DF0097
:100B0E0083124B08043E8316E000831240088316BE
:100B1E00E1009C210230FB000430FC00BA30FD00E5
:100B2E00FD0B972DFC0B972DFB0B972D0000023024
:100B3E008316DF0083124B08043E8316E0002A3032
:100B4E00E1009C21C001C101CB0A0319CC0A5D2D25
:100B5E0000304C06031DB52D01304B06031DEA2D4A
:100B6E0030304002D3000030031C013E4102D4005D
:100B7E0002308316DF0083124B08043E8316E0001A
:100B8E00831240088316E1009C210230FB000430E2
:100B9E00FC00BA30FD00FD0BD22DFC0BD22DFB0B51
:100BAE00D22D000002308316DF0083124B08043E64
:100BBE008316E0002A30E1009C21C001C101CB0A5E
:100BCE000319CC0A5D2D00304C06031DF02D0230AA
:100BDE004B06031D252E30304002CF000030031C83
:100BEE00013E4102D00002308316DF0083124B0813
:100BFE00043E8316E000831240088316E1009C2118
:100C0E000230FB000430FC00BA30FD00FD0B0D2E4F
:100C1E00FC0B0D2EFB0B0D2E000002308316DF0099
:100C2E0083124B08043E8316E0002A30E1009C211B
:100C3E00C001C101CB0A0319CC0A5D2D00304C0650
:100C4E00031D2B2E03304B06031D6A2E303040023F
:100C5E00C6000030031C013E4102C700023083165D
:100C6E00DF0083124B08043E8316E0008312400817
:100C7E008316E1009C210230FB000430FC00BA30E8
:100C8E00FD00FD0B482EFC0B482EFB0B482E0000E2
:100C9E0002308316DF0083124B08043E8316E000F9
:100CAE002A30E1009C218230FC00DD30FD00FD0B7E
:100CBE005E2EFC0B5E2E00000000C001C101CB0AAF
:0E0CCE000319CC0A6D2EF001F1010800080098
:100CDC00A53083120313BC000730BD00A030840084
:100CEC002930F000D42101308316E3004420003079
:100CFC003106031D832E0030300603199E2E013061
:100D0C008316E300442001308316DF000430E0003A
:100D1C00A030E100EC2102308316DF000130E0004E
:100D2C00A730E100EC21043087008A22B001B10128
:100D3C0000303306031DA42E003032060319BB2EDF
:100D4C000930870001308316DF000430E000A0304A
:100D5C00E100EC2102308316DF000130E000B830F6
:100D6C00E100EC218A22B201B301F001F10108008B
:100D7C0083160313881008100811881108128812A2
:100D8C00831288100810881208128811081131205B
:100D9C00312031208815081588142F208810312017
:100DAC0088142F208810312088142F20881031208F
:100DBC00081188142F208810312088142F208810B7
:100DCC008811881688142F20881031208812081555
:100DDC0088142F208810081188142F208810312097
:100DEC0088142F208810081588142F208810312083
:100DFC00081188142F2088108816081688150815D5
:0C0E0C0088142F20881031204A140800A0
:100E1800EA278B178B150B16831603130113FF3064
:100E28008600FF3085008701831287010130C400E6
:100E38000030C5000130C2000030C3000130C800D6
:100E48000030C9000130CD000030CE00503083168C
:100E5800DB000130DC0067221A30FC00F830FD00AE
:100E6800FD0B342FFC0B342F000051300313DB0033
:100E7800831244088316DC0067221A30FC00F8301D
:100E8800FD00FD0B452FFC0B452F000052300313CE
:100E9800DB00831244088316DC0067221A30FC004A
:100EA800F830FD00FD0B562FFC0B562F0000533079
:100EB8000313DB00831244088316DC0067228312C5
:100EC80003138711BE2601308316E30044200C303B
:100ED8008316E30044208A1500208A116E266F2F9E
:020EE800742F65
:100FD400203084001C3083120313F000CE30BC0098
:080FE4000730BD00D421080014
:10100000453083120313D9006E30DA007430DB00F0
:101010007230DC006530DD007230DE002030DF0031
:101020006C30E0006530E1002030E2006330E30026
:101030006F30E4006430E5006530E6003A30E700E8
:10104000E80163308316A0006F30A1006430A20075
:101050006530A3002030A4004530A5007230A60002
:101060007230A7006F30A8006E30A9006530AA006A
:10107000AB016330AC006F30AD006430AE00653062
:10108000AF002030B0006130B1006330B200633097
:10109000B3006530B4007030B5007430B600653010
:1010A000B700B8012030B9006E30BA006F30BB0015
:1010B0007530BC007630BD006530BE006130BF00C9
:1010C0007530C0002030C1006330C2006F30C300F3
:1010D0006430C4006530C5002030C600C701203030
:1010E000C8007230C9006530CA007330CB0073305D
:1010F000CC006130CD006930CE007330CF00693054
:10110000D0006530D1002030D2006330D3006F3082
:10111000D4006430D5006530D6002030D700D80127
:101120008312E901EA01EB01EC01ED01EE018030EF
:10113000870000303B06031D9F2800303A06031D40
:10114000A428F001F101080000303B06031DAA2885
:1011500000303A060319352BBA01BB010130831662
:10116000E3008A1144208A1501308316DF00013024
:10117000E0005930E1008A11EC218A150330FB00B0
:101180008A30FC005530FD00FD0BC428FC0BC42840
:10119000FB0BC428000000008A114F258A15550852
:1011A000F0005608F100E830F4000330F5008A1131
:1011B00030228A1570088316D9007108DA0083126C
:1011C0005308F0005408F1006430F4000030F500DA
:1011D0008A1130228A157008831659078312ED0090
:1011E00083165A080318013E71078312EE004F0858
:1011F000F0005008F1000A30F4000030F5008A11C8
:1012000030228A157008ED0771080318013EEE07B9
:101210004608ED0747080318013EEE075030EF007F
:101220008A11E0218A1570080313AC00AD018A1100
:101230005B228A15513083120313EF008A11E021DB
:101240008A1570080313AA00AB018A115B228A1564
:10125000523083120313EF008A11E0218A157008BF
:101260000313A800A9018A115B228A155330831247
:101270000313EF008A11E0218A1570080313B600EA
:10128000B7018A115B228A15831203132C08F00020
:101290002D08F100E830F4000330F5008A11302207
:1012A0008A1570088316D9007108DA0083122A089B
:1012B000F0002B08F1006430F4000030F5008A11D2
:1012C00030228A1570088316D90771080318013E69
:1012D000DA0783122808F0002908F1000A30F40028
:1012E0000030F5008A1130228A1583165908F0075C
:1012F0005A080318013EF107831236087007F200FE
:1013000071080318013E3707F3007208D100730813
:10131000D2006E087306031D8F2972086D06031D27
:101320000A2B01308316E3008A1144208A1501300C
:101330008316DF000130E000AC30E1008A11EC21BF
:101340008A15043087000630FB001330FC00AD30F6
:10135000FD00FD0BA929FC0BA929FB0BA929000005
:10136000000001308316E3008A1144208A15013001
:101370008316DF000130E000B930E1008A11EC2172
:101380008A158A114F258A155508F0005608F10074
:10139000E830F4000330F5008A1130228A15700815
:1013A0008316D9007108DA0083125308F00054083C
:1013B000F1006430F4000030F5008A1130228A1503
:1013C0007008831659078312E90083165A08031818
:1013D000013E71078312EA004F08F0005008F10047
:1013E0000A30F4000030F5008A1130228A157008A6
:1013F000E90771080318013EEA074608E9074708AC
:101400000318013EEA0701308316E3008A114420E5
:101410008A1501308316DF000130E000C830E1009A
:101420008A11EC218A150630FB001330FC00AD3028
:10143000FD00FD0B192AFC0B192AFB0B192A0000D1
:1014400000008A114F258A155508F0005608F10052
:10145000E830F4000330F5008A1130228A15700854
:101460008316D9007108DA0083125308F00054087B
:10147000F1006430F4000030F5008A1130228A1542
:1014800070088316D90771080318013EDA07831222
:101490004F08F0005008F1000A30F4000030F50069
:1014A0008A1130228A1583165908F0075A08031842
:1014B000013EF107831246087007F2007108031815
:1014C000013E4707F3007208EB007308EC006A085E
:1014D0007306031D6D2A72086906031DDD2A01309B
:1014E0008316E3008A1144208A1501308316DF0039
:1014F0000130E000AC30E1008A11EC218A150430A3
:10150000870050308316DB00831255088316DC00F9
:101510008A1167228A150230FB000430FC00BA30C1
:10152000FD00FD0B912AFC0B912AFB0B912A000078
:1015300051300313DB00831253088316DC008A1139
:1015400067228A150230FB000430FC00BA30FD002F
:10155000FD0BA82AFC0BA82AFB0BA82A000052307E
:101560000313DB0083124F088316DC008A11672205
:101570008A150230FB000430FC00BA30FD00FD0B80
:10158000BF2AFC0BBF2AFB0BBF2A000053300313FA
:10159000DB00831246088316DC008A1167228A1555
:1015A0000230FB000430FC00BA30FD00FD0BD62AEF
:1015B000FC0BD62AFB0BD62A0000831203136A0801
:1015C0006C06031DE52A6B0869060319072B013019
:1015D0008316E3008A1144208A1501308316DF0048
:1015E0000130E000A030E1008A11EC218A150230C0
:1015F00087000630FB001330FC00AD30FD00FD0B12
:10160000FF2AFC0BFF2AFB0BFF2A00000000F00161
:10161000F10108006E085206031D102B51086D06DB
:101620000319352B01308316E3008A1144208A15F3
:1016300001308316DF000130E000A030E1008A11A4
:10164000EC218A15023087000B30FB002630FC00AD
:101650005D30FD00FD0B2A2BFC0B2A2BFB0B2A2BEC
:0C16600000000000F001F101080008008B
:040EF4000034003492
:100EF80045346E34743472346534723420346C344E
:100F08006534203463346F34643465343A340034DF
:100F180063346F3464346534203445347234723445
:080F28006F346E3465340034AF
:100F300063346F346434653420346134633463342F
:0A0F400065347034743465340034F5
:0E0F4A00643461346E346734653472340034BC
:100F580061346E34743469342D3469346E347434C5
:100F680072347534733469346F346E3420343134E8
:020F7800003443
:100F7A0061346E34743469342D3469346E347434A3
:100F8A0072347534733469346F346E3420343234C5
:020F9A00003421
:040F9C0000340034E9
:040FA00000340034E5
:040FA40000340034E1
:040FA80000340034DD
:040FAC0000340034D9
:040FB00000340034D5
:040FB40000340034D1
:040FB80000340034CD
:040FBC0000340034C9
:040FC00000340034C5
:040FC40000340034C1
:040FC80000340034BD
:040FCC0000340034B9
:040FD00000340034B5
:02400E007A3BFB
:00000001FF
